{
	"data": {
		"bytecode": {
			"linkReferences": {},
			"object": "608060405234801561001057600080fd5b5061002d61002261003260201b60201c565b61003a60201b60201c565b6100fe565b600033905090565b60008060009054906101000a900473ffffffffffffffffffffffffffffffffffffffff169050816000806101000a81548173ffffffffffffffffffffffffffffffffffffffff021916908373ffffffffffffffffffffffffffffffffffffffff1602179055508173ffffffffffffffffffffffffffffffffffffffff168173ffffffffffffffffffffffffffffffffffffffff167f8be0079c531659141344cd1fd0a4f28419497f9722a3daafe3b4186f6b6457e060405160405180910390a35050565b611bec8061010d6000396000f3fe6080604052600436106100915760003560e01c8063d1660f9911610059578063d1660f9914610154578063d9fc4b611461017d578063ec54bfd7146101a6578063f2fde38b146101d1578063ff54f1f3146101fa57610091565b80636804b9ba14610096578063715018a6146100c65780638b02ab75146100dd5780638da5cb5b1461010d578063a7d16f3014610138575b600080fd5b6100b060048036038101906100ab9190610cf4565b610223565b6040516100bd9190610e75565b60405180910390f35b3480156100d257600080fd5b506100db61030e565b005b6100f760048036038101906100f29190611280565b610396565b6040516101049190610e75565b60405180910390f35b34801561011957600080fd5b506101226105ac565b60405161012f9190611307565b60405180910390f35b610152600480360381019061014d9190611322565b6105d5565b005b34801561016057600080fd5b5061017b60048036038101906101769190611391565b6106c1565b005b34801561018957600080fd5b506101a4600480360381019061019f91906113e4565b6107c3565b005b3480156101b257600080fd5b506101bb6108c8565b6040516101c89190611307565b60405180910390f35b3480156101dd57600080fd5b506101f860048036038101906101f3919061144b565b6108ee565b005b34801561020657600080fd5b50610221600480360381019061021c919061144b565b6109e6565b005b606060008280600001906102379190611487565b905067ffffffffffffffff81111561025257610251610ead565b5b60405190808252806020026020018201604052801561028b57816020015b610278610c8c565b8152602001906001900390816102705790505b50905060005b8380602001906102a191906114ea565b9050811015610304576102ef828580602001906102be91906114ea565b848181106102cf576102ce61154d565b5b90506020028101906102e1919061157c565b6102ea906115a4565b610396565b915080806102fc906115e6565b915050610291565b5080915050919050565b610316610aa6565b73ffffffffffffffffffffffffffffffffffffffff166103346105ac565b73ffffffffffffffffffffffffffffffffffffffff161461038a576040517f08c379a00000000000000000000000000000000000000000000000000000000081526004016103819061168c565b60405180910390fd5b6103946000610aae565b565b6060600080600160009054906101000a900473ffffffffffffffffffffffffffffffffffffffff1673ffffffffffffffffffffffffffffffffffffffff16637117750d85600001516040518263ffffffff1660e01b81526004016103fa9190611723565b604080518083038186803b15801561041157600080fd5b505afa158015610425573d6000803e3d6000fd5b505050506040513d601f19601f82011682018060405250810190610449919061175a565b80925081935050506000635530ea1a60e01b8686602001516040516024016104729291906117ef565b604051602081830303815290604052907bffffffffffffffffffffffffffffffffffffffffffffffffffffffff19166020820180517bffffffffffffffffffffffffffffffffffffffffffffffffffffffff838183161783525050505090506000808473ffffffffffffffffffffffffffffffffffffffff16836040516104f99190611862565b600060405180830381855af49150503d8060008114610534576040519150601f19603f3d011682016040523d82523d6000602084013e610539565b606091505b50915091506001151582151514610585576040517f08c379a000000000000000000000000000000000000000000000000000000000815260040161057c906118eb565b60405180910390fd5b60008180602001905181019061059b9190611a07565b905080965050505050505092915050565b60008060009054906101000a900473ffffffffffffffffffffffffffffffffffffffff16905090565b6105dd610aa6565b73ffffffffffffffffffffffffffffffffffffffff166105fb6105ac565b73ffffffffffffffffffffffffffffffffffffffff1614610651576040517f08c379a00000000000000000000000000000000000000000000000000000000081526004016106489061168c565b60405180910390fd5b8273ffffffffffffffffffffffffffffffffffffffff1682826040516106779190611862565b60006040518083038185875af1925050503d80600081146106b4576040519150601f19603f3d011682016040523d82523d6000602084013e6106b9565b606091505b505050505050565b6106c9610aa6565b73ffffffffffffffffffffffffffffffffffffffff166106e76105ac565b73ffffffffffffffffffffffffffffffffffffffff161461073d576040517f08c379a00000000000000000000000000000000000000000000000000000000081526004016107349061168c565b60405180910390fd5b6107be8363a9059cbb60e01b848460405160240161075c929190611a5f565b604051602081830303815290604052907bffffffffffffffffffffffffffffffffffffffffffffffffffffffff19166020820180517bffffffffffffffffffffffffffffffffffffffffffffffffffffffff8381831617835250505050610b72565b505050565b6107cb610aa6565b73ffffffffffffffffffffffffffffffffffffffff166107e96105ac565b73ffffffffffffffffffffffffffffffffffffffff161461083f576040517f08c379a00000000000000000000000000000000000000000000000000000000081526004016108369061168c565b60405180910390fd5b6108c2846323b872dd60e01b85858560405160240161086093929190611a88565b604051602081830303815290604052907bffffffffffffffffffffffffffffffffffffffffffffffffffffffff19166020820180517bffffffffffffffffffffffffffffffffffffffffffffffffffffffff8381831617835250505050610b72565b50505050565b600160009054906101000a900473ffffffffffffffffffffffffffffffffffffffff1681565b6108f6610aa6565b73ffffffffffffffffffffffffffffffffffffffff166109146105ac565b73ffffffffffffffffffffffffffffffffffffffff161461096a576040517f08c379a00000000000000000000000000000000000000000000000000000000081526004016109619061168c565b60405180910390fd5b600073ffffffffffffffffffffffffffffffffffffffff168173ffffffffffffffffffffffffffffffffffffffff1614156109da576040517f08c379a00000000000000000000000000000000000000000000000000000000081526004016109d190611b31565b60405180910390fd5b6109e381610aae565b50565b6109ee610aa6565b73ffffffffffffffffffffffffffffffffffffffff16610a0c6105ac565b73ffffffffffffffffffffffffffffffffffffffff1614610a62576040517f08c379a0000000000000000000000000000000000000000000000000000000008152600401610a599061168c565b60405180910390fd5b80600160006101000a81548173ffffffffffffffffffffffffffffffffffffffff021916908373ffffffffffffffffffffffffffffffffffffffff16021790555050565b600033905090565b60008060009054906101000a900473ffffffffffffffffffffffffffffffffffffffff169050816000806101000a81548173ffffffffffffffffffffffffffffffffffffffff021916908373ffffffffffffffffffffffffffffffffffffffff1602179055508173ffffffffffffffffffffffffffffffffffffffff168173ffffffffffffffffffffffffffffffffffffffff167f8be0079c531659141344cd1fd0a4f28419497f9722a3daafe3b4186f6b6457e060405160405180910390a35050565b6000808373ffffffffffffffffffffffffffffffffffffffff1683604051610b9a9190611862565b6000604051808303816000865af19150503d8060008114610bd7576040519150601f19603f3d011682016040523d82523d6000602084013e610bdc565b606091505b50915091506001151582151514610c28576040517f08c379a0000000000000000000000000000000000000000000000000000000008152600401610c1f906118eb565b60405180910390fd5b600081511115610c865780806020019051810190610c469190611b89565b610c85576040517f08c379a0000000000000000000000000000000000000000000000000000000008152600401610c7c906118eb565b60405180910390fd5b5b50505050565b6040518060400160405280600073ffffffffffffffffffffffffffffffffffffffff168152602001600081525090565b6000604051905090565b600080fd5b600080fd5b600080fd5b600060408284031215610ceb57610cea610cd0565b5b81905092915050565b600060208284031215610d0a57610d09610cc6565b5b600082013567ffffffffffffffff811115610d2857610d27610ccb565b5b610d3484828501610cd5565b91505092915050565b600081519050919050565b600082825260208201905092915050565b6000819050602082019050919050565b600073ffffffffffffffffffffffffffffffffffffffff82169050919050565b6000610d9482610d69565b9050919050565b610da481610d89565b82525050565b6000819050919050565b610dbd81610daa565b82525050565b604082016000820151610dd96000850182610d9b565b506020820151610dec6020850182610db4565b50505050565b6000610dfe8383610dc3565b60408301905092915050565b6000602082019050919050565b6000610e2282610d3d565b610e2c8185610d48565b9350610e3783610d59565b8060005b83811015610e68578151610e4f8882610df2565b9750610e5a83610e0a565b925050600181019050610e3b565b5085935050505092915050565b60006020820190508181036000830152610e8f8184610e17565b905092915050565b600080fd5b6000601f19601f8301169050919050565b7f4e487b7100000000000000000000000000000000000000000000000000000000600052604160045260246000fd5b610ee582610e9c565b810181811067ffffffffffffffff82111715610f0457610f03610ead565b5b80604052505050565b6000610f17610cbc565b9050610f238282610edc565b919050565b600067ffffffffffffffff821115610f4357610f42610ead565b5b602082029050602081019050919050565b600080fd5b600080fd5b600080fd5b610f6c81610d89565b8114610f7757600080fd5b50565b600081359050610f8981610f63565b92915050565b610f9881610daa565b8114610fa357600080fd5b50565b600081359050610fb581610f8f565b92915050565b600060408284031215610fd157610fd0610f59565b5b610fdb6040610f0d565b90506000610feb84828501610f7a565b6000830152506020610fff84828501610fa6565b60208301525092915050565b600061101e61101984610f28565b610f0d565b9050808382526020820190506040840283018581111561104157611040610f54565b5b835b8181101561106a57806110568882610fbb565b845260208401935050604081019050611043565b5050509392505050565b600082601f83011261108957611088610e97565b5b813561109984826020860161100b565b91505092915050565b600080fd5b600067ffffffffffffffff8211156110c2576110c1610ead565b5b6110cb82610e9c565b9050602081019050919050565b82818337600083830152505050565b60006110fa6110f5846110a7565b610f0d565b905082815260208101848484011115611116576111156110a2565b5b6111218482856110d8565b509392505050565b600082601f83011261113e5761113d610e97565b5b813561114e8482602086016110e7565b91505092915050565b600067ffffffffffffffff82111561117257611171610ead565b5b61117b82610e9c565b9050602081019050919050565b600061119b61119684611157565b610f0d565b9050828152602081018484840111156111b7576111b66110a2565b5b6111c28482856110d8565b509392505050565b600082601f8301126111df576111de610e97565b5b81356111ef848260208601611188565b91505092915050565b60006040828403121561120e5761120d610f59565b5b6112186040610f0d565b9050600082013567ffffffffffffffff81111561123857611237610f5e565b5b61124484828501611129565b600083015250602082013567ffffffffffffffff81111561126857611267610f5e565b5b611274848285016111ca565b60208301525092915050565b6000806040838503121561129757611296610cc6565b5b600083013567ffffffffffffffff8111156112b5576112b4610ccb565b5b6112c185828601611074565b925050602083013567ffffffffffffffff8111156112e2576112e1610ccb565b5b6112ee858286016111f8565b9150509250929050565b61130181610d89565b82525050565b600060208201905061131c60008301846112f8565b92915050565b60008060006060848603121561133b5761133a610cc6565b5b600061134986828701610f7a565b935050602061135a86828701610fa6565b925050604084013567ffffffffffffffff81111561137b5761137a610ccb565b5b611387868287016111ca565b9150509250925092565b6000806000606084860312156113aa576113a9610cc6565b5b60006113b886828701610f7a565b93505060206113c986828701610f7a565b92505060406113da86828701610fa6565b9150509250925092565b600080600080608085870312156113fe576113fd610cc6565b5b600061140c87828801610f7a565b945050602061141d87828801610f7a565b935050604061142e87828801610f7a565b925050606061143f87828801610fa6565b91505092959194509250565b60006020828403121561146157611460610cc6565b5b600061146f84828501610f7a565b91505092915050565b600080fd5b600080fd5b600080fd5b600080833560016020038436030381126114a4576114a3611478565b5b80840192508235915067ffffffffffffffff8211156114c6576114c561147d565b5b6020830192506040820236038313156114e2576114e1611482565b5b509250929050565b6000808335600160200384360303811261150757611506611478565b5b80840192508235915067ffffffffffffffff8211156115295761152861147d565b5b60208301925060208202360383131561154557611544611482565b5b509250929050565b7f4e487b7100000000000000000000000000000000000000000000000000000000600052603260045260246000fd5b60008235600160400383360303811261159857611597611478565b5b80830191505092915050565b60006115b036836111f8565b9050919050565b7f4e487b7100000000000000000000000000000000000000000000000000000000600052601160045260246000fd5b60006115f182610daa565b91507fffffffffffffffffffffffffffffffffffffffffffffffffffffffffffffffff821415611624576116236115b7565b5b600182019050919050565b600082825260208201905092915050565b7f4f776e61626c653a2063616c6c6572206973206e6f7420746865206f776e6572600082015250565b600061167660208361162f565b915061168182611640565b602082019050919050565b600060208201905081810360008301526116a581611669565b9050919050565b600081519050919050565b60005b838110156116d55780820151818401526020810190506116ba565b838111156116e4576000848401525b50505050565b60006116f5826116ac565b6116ff818561162f565b935061170f8185602086016116b7565b61171881610e9c565b840191505092915050565b6000602082019050818103600083015261173d81846116ea565b905092915050565b60008151905061175481610f63565b92915050565b6000806040838503121561177157611770610cc6565b5b600061177f85828601611745565b925050602061179085828601611745565b9150509250929050565b600081519050919050565b600082825260208201905092915050565b60006117c18261179a565b6117cb81856117a5565b93506117db8185602086016116b7565b6117e481610e9c565b840191505092915050565b600060408201905081810360008301526118098185610e17565b9050818103602083015261181d81846117b6565b90509392505050565b600081905092915050565b600061183c8261179a565b6118468185611826565b93506118568185602086016116b7565b80840191505092915050565b600061186e8284611831565b915081905092915050565b7f5361666545524332303a204552433230206f7065726174696f6e20646964206e60008201527f6f74207375636365656400000000000000000000000000000000000000000000602082015250565b60006118d5602a8361162f565b91506118e082611879565b604082019050919050565b60006020820190508181036000830152611904816118c8565b9050919050565b60008151905061191a81610f8f565b92915050565b60006040828403121561193657611935610f59565b5b6119406040610f0d565b9050600061195084828501611745565b60008301525060206119648482850161190b565b60208301525092915050565b600061198361197e84610f28565b610f0d565b905080838252602082019050604084028301858111156119a6576119a5610f54565b5b835b818110156119cf57806119bb8882611920565b8452602084019350506040810190506119a8565b5050509392505050565b600082601f8301126119ee576119ed610e97565b5b81516119fe848260208601611970565b91505092915050565b600060208284031215611a1d57611a1c610cc6565b5b600082015167ffffffffffffffff811115611a3b57611a3a610ccb565b5b611a47848285016119d9565b91505092915050565b611a5981610daa565b82525050565b6000604082019050611a7460008301856112f8565b611a816020830184611a50565b9392505050565b6000606082019050611a9d60008301866112f8565b611aaa60208301856112f8565b611ab76040830184611a50565b949350505050565b7f4f776e61626c653a206e6577206f776e657220697320746865207a65726f206160008201527f6464726573730000000000000000000000000000000000000000000000000000602082015250565b6000611b1b60268361162f565b9150611b2682611abf565b604082019050919050565b60006020820190508181036000830152611b4a81611b0e565b9050919050565b60008115159050919050565b611b6681611b51565b8114611b7157600080fd5b50565b600081519050611b8381611b5d565b92915050565b600060208284031215611b9f57611b9e610cc6565b5b6000611bad84828501611b74565b9150509291505056fea2646970667358221220ea33d83bfa81a288c680724809b6906fd590d2bd6f4cbfea4f71592d8d773c0b64736f6c63430008090033",
			"opcodes": "PUSH1 0x80 PUSH1 0x40 MSTORE CALLVALUE DUP1 ISZERO PUSH2 0x10 JUMPI PUSH1 0x0 DUP1 REVERT JUMPDEST POP PUSH2 0x2D PUSH2 0x22 PUSH2 0x32 PUSH1 0x20 SHL PUSH1 0x20 SHR JUMP JUMPDEST PUSH2 0x3A PUSH1 0x20 SHL PUSH1 0x20 SHR JUMP JUMPDEST PUSH2 0xFE JUMP JUMPDEST PUSH1 0x0 CALLER SWAP1 POP SWAP1 JUMP JUMPDEST PUSH1 0x0 DUP1 PUSH1 0x0 SWAP1 SLOAD SWAP1 PUSH2 0x100 EXP SWAP1 DIV PUSH20 0xFFFFFFFFFFFFFFFFFFFFFFFFFFFFFFFFFFFFFFFF AND SWAP1 POP DUP2 PUSH1 0x0 DUP1 PUSH2 0x100 EXP DUP2 SLOAD DUP2 PUSH20 0xFFFFFFFFFFFFFFFFFFFFFFFFFFFFFFFFFFFFFFFF MUL NOT AND SWAP1 DUP4 PUSH20 0xFFFFFFFFFFFFFFFFFFFFFFFFFFFFFFFFFFFFFFFF AND MUL OR SWAP1 SSTORE POP DUP2 PUSH20 0xFFFFFFFFFFFFFFFFFFFFFFFFFFFFFFFFFFFFFFFF AND DUP2 PUSH20 0xFFFFFFFFFFFFFFFFFFFFFFFFFFFFFFFFFFFFFFFF AND PUSH32 0x8BE0079C531659141344CD1FD0A4F28419497F9722A3DAAFE3B4186F6B6457E0 PUSH1 0x40 MLOAD PUSH1 0x40 MLOAD DUP1 SWAP2 SUB SWAP1 LOG3 POP POP JUMP JUMPDEST PUSH2 0x1BEC DUP1 PUSH2 0x10D PUSH1 0x0 CODECOPY PUSH1 0x0 RETURN INVALID PUSH1 0x80 PUSH1 0x40 MSTORE PUSH1 0x4 CALLDATASIZE LT PUSH2 0x91 JUMPI PUSH1 0x0 CALLDATALOAD PUSH1 0xE0 SHR DUP1 PUSH4 0xD1660F99 GT PUSH2 0x59 JUMPI DUP1 PUSH4 0xD1660F99 EQ PUSH2 0x154 JUMPI DUP1 PUSH4 0xD9FC4B61 EQ PUSH2 0x17D JUMPI DUP1 PUSH4 0xEC54BFD7 EQ PUSH2 0x1A6 JUMPI DUP1 PUSH4 0xF2FDE38B EQ PUSH2 0x1D1 JUMPI DUP1 PUSH4 0xFF54F1F3 EQ PUSH2 0x1FA JUMPI PUSH2 0x91 JUMP JUMPDEST DUP1 PUSH4 0x6804B9BA EQ PUSH2 0x96 JUMPI DUP1 PUSH4 0x715018A6 EQ PUSH2 0xC6 JUMPI DUP1 PUSH4 0x8B02AB75 EQ PUSH2 0xDD JUMPI DUP1 PUSH4 0x8DA5CB5B EQ PUSH2 0x10D JUMPI DUP1 PUSH4 0xA7D16F30 EQ PUSH2 0x138 JUMPI JUMPDEST PUSH1 0x0 DUP1 REVERT JUMPDEST PUSH2 0xB0 PUSH1 0x4 DUP1 CALLDATASIZE SUB DUP2 ADD SWAP1 PUSH2 0xAB SWAP2 SWAP1 PUSH2 0xCF4 JUMP JUMPDEST PUSH2 0x223 JUMP JUMPDEST PUSH1 0x40 MLOAD PUSH2 0xBD SWAP2 SWAP1 PUSH2 0xE75 JUMP JUMPDEST PUSH1 0x40 MLOAD DUP1 SWAP2 SUB SWAP1 RETURN JUMPDEST CALLVALUE DUP1 ISZERO PUSH2 0xD2 JUMPI PUSH1 0x0 DUP1 REVERT JUMPDEST POP PUSH2 0xDB PUSH2 0x30E JUMP JUMPDEST STOP JUMPDEST PUSH2 0xF7 PUSH1 0x4 DUP1 CALLDATASIZE SUB DUP2 ADD SWAP1 PUSH2 0xF2 SWAP2 SWAP1 PUSH2 0x1280 JUMP JUMPDEST PUSH2 0x396 JUMP JUMPDEST PUSH1 0x40 MLOAD PUSH2 0x104 SWAP2 SWAP1 PUSH2 0xE75 JUMP JUMPDEST PUSH1 0x40 MLOAD DUP1 SWAP2 SUB SWAP1 RETURN JUMPDEST CALLVALUE DUP1 ISZERO PUSH2 0x119 JUMPI PUSH1 0x0 DUP1 REVERT JUMPDEST POP PUSH2 0x122 PUSH2 0x5AC JUMP JUMPDEST PUSH1 0x40 MLOAD PUSH2 0x12F SWAP2 SWAP1 PUSH2 0x1307 JUMP JUMPDEST PUSH1 0x40 MLOAD DUP1 SWAP2 SUB SWAP1 RETURN JUMPDEST PUSH2 0x152 PUSH1 0x4 DUP1 CALLDATASIZE SUB DUP2 ADD SWAP1 PUSH2 0x14D SWAP2 SWAP1 PUSH2 0x1322 JUMP JUMPDEST PUSH2 0x5D5 JUMP JUMPDEST STOP JUMPDEST CALLVALUE DUP1 ISZERO PUSH2 0x160 JUMPI PUSH1 0x0 DUP1 REVERT JUMPDEST POP PUSH2 0x17B PUSH1 0x4 DUP1 CALLDATASIZE SUB DUP2 ADD SWAP1 PUSH2 0x176 SWAP2 SWAP1 PUSH2 0x1391 JUMP JUMPDEST PUSH2 0x6C1 JUMP JUMPDEST STOP JUMPDEST CALLVALUE DUP1 ISZERO PUSH2 0x189 JUMPI PUSH1 0x0 DUP1 REVERT JUMPDEST POP PUSH2 0x1A4 PUSH1 0x4 DUP1 CALLDATASIZE SUB DUP2 ADD SWAP1 PUSH2 0x19F SWAP2 SWAP1 PUSH2 0x13E4 JUMP JUMPDEST PUSH2 0x7C3 JUMP JUMPDEST STOP JUMPDEST CALLVALUE DUP1 ISZERO PUSH2 0x1B2 JUMPI PUSH1 0x0 DUP1 REVERT JUMPDEST POP PUSH2 0x1BB PUSH2 0x8C8 JUMP JUMPDEST PUSH1 0x40 MLOAD PUSH2 0x1C8 SWAP2 SWAP1 PUSH2 0x1307 JUMP JUMPDEST PUSH1 0x40 MLOAD DUP1 SWAP2 SUB SWAP1 RETURN JUMPDEST CALLVALUE DUP1 ISZERO PUSH2 0x1DD JUMPI PUSH1 0x0 DUP1 REVERT JUMPDEST POP PUSH2 0x1F8 PUSH1 0x4 DUP1 CALLDATASIZE SUB DUP2 ADD SWAP1 PUSH2 0x1F3 SWAP2 SWAP1 PUSH2 0x144B JUMP JUMPDEST PUSH2 0x8EE JUMP JUMPDEST STOP JUMPDEST CALLVALUE DUP1 ISZERO PUSH2 0x206 JUMPI PUSH1 0x0 DUP1 REVERT JUMPDEST POP PUSH2 0x221 PUSH1 0x4 DUP1 CALLDATASIZE SUB DUP2 ADD SWAP1 PUSH2 0x21C SWAP2 SWAP1 PUSH2 0x144B JUMP JUMPDEST PUSH2 0x9E6 JUMP JUMPDEST STOP JUMPDEST PUSH1 0x60 PUSH1 0x0 DUP3 DUP1 PUSH1 0x0 ADD SWAP1 PUSH2 0x237 SWAP2 SWAP1 PUSH2 0x1487 JUMP JUMPDEST SWAP1 POP PUSH8 0xFFFFFFFFFFFFFFFF DUP2 GT ISZERO PUSH2 0x252 JUMPI PUSH2 0x251 PUSH2 0xEAD JUMP JUMPDEST JUMPDEST PUSH1 0x40 MLOAD SWAP1 DUP1 DUP3 MSTORE DUP1 PUSH1 0x20 MUL PUSH1 0x20 ADD DUP3 ADD PUSH1 0x40 MSTORE DUP1 ISZERO PUSH2 0x28B JUMPI DUP2 PUSH1 0x20 ADD JUMPDEST PUSH2 0x278 PUSH2 0xC8C JUMP JUMPDEST DUP2 MSTORE PUSH1 0x20 ADD SWAP1 PUSH1 0x1 SWAP1 SUB SWAP1 DUP2 PUSH2 0x270 JUMPI SWAP1 POP JUMPDEST POP SWAP1 POP PUSH1 0x0 JUMPDEST DUP4 DUP1 PUSH1 0x20 ADD SWAP1 PUSH2 0x2A1 SWAP2 SWAP1 PUSH2 0x14EA JUMP JUMPDEST SWAP1 POP DUP2 LT ISZERO PUSH2 0x304 JUMPI PUSH2 0x2EF DUP3 DUP6 DUP1 PUSH1 0x20 ADD SWAP1 PUSH2 0x2BE SWAP2 SWAP1 PUSH2 0x14EA JUMP JUMPDEST DUP5 DUP2 DUP2 LT PUSH2 0x2CF JUMPI PUSH2 0x2CE PUSH2 0x154D JUMP JUMPDEST JUMPDEST SWAP1 POP PUSH1 0x20 MUL DUP2 ADD SWAP1 PUSH2 0x2E1 SWAP2 SWAP1 PUSH2 0x157C JUMP JUMPDEST PUSH2 0x2EA SWAP1 PUSH2 0x15A4 JUMP JUMPDEST PUSH2 0x396 JUMP JUMPDEST SWAP2 POP DUP1 DUP1 PUSH2 0x2FC SWAP1 PUSH2 0x15E6 JUMP JUMPDEST SWAP2 POP POP PUSH2 0x291 JUMP JUMPDEST POP DUP1 SWAP2 POP POP SWAP2 SWAP1 POP JUMP JUMPDEST PUSH2 0x316 PUSH2 0xAA6 JUMP JUMPDEST PUSH20 0xFFFFFFFFFFFFFFFFFFFFFFFFFFFFFFFFFFFFFFFF AND PUSH2 0x334 PUSH2 0x5AC JUMP JUMPDEST PUSH20 0xFFFFFFFFFFFFFFFFFFFFFFFFFFFFFFFFFFFFFFFF AND EQ PUSH2 0x38A JUMPI PUSH1 0x40 MLOAD PUSH32 0x8C379A000000000000000000000000000000000000000000000000000000000 DUP2 MSTORE PUSH1 0x4 ADD PUSH2 0x381 SWAP1 PUSH2 0x168C JUMP JUMPDEST PUSH1 0x40 MLOAD DUP1 SWAP2 SUB SWAP1 REVERT JUMPDEST PUSH2 0x394 PUSH1 0x0 PUSH2 0xAAE JUMP JUMPDEST JUMP JUMPDEST PUSH1 0x60 PUSH1 0x0 DUP1 PUSH1 0x1 PUSH1 0x0 SWAP1 SLOAD SWAP1 PUSH2 0x100 EXP SWAP1 DIV PUSH20 0xFFFFFFFFFFFFFFFFFFFFFFFFFFFFFFFFFFFFFFFF AND PUSH20 0xFFFFFFFFFFFFFFFFFFFFFFFFFFFFFFFFFFFFFFFF AND PUSH4 0x7117750D DUP6 PUSH1 0x0 ADD MLOAD PUSH1 0x40 MLOAD DUP3 PUSH4 0xFFFFFFFF AND PUSH1 0xE0 SHL DUP2 MSTORE PUSH1 0x4 ADD PUSH2 0x3FA SWAP2 SWAP1 PUSH2 0x1723 JUMP JUMPDEST PUSH1 0x40 DUP1 MLOAD DUP1 DUP4 SUB DUP2 DUP7 DUP1 EXTCODESIZE ISZERO DUP1 ISZERO PUSH2 0x411 JUMPI PUSH1 0x0 DUP1 REVERT JUMPDEST POP GAS STATICCALL ISZERO DUP1 ISZERO PUSH2 0x425 JUMPI RETURNDATASIZE PUSH1 0x0 DUP1 RETURNDATACOPY RETURNDATASIZE PUSH1 0x0 REVERT JUMPDEST POP POP POP POP PUSH1 0x40 MLOAD RETURNDATASIZE PUSH1 0x1F NOT PUSH1 0x1F DUP3 ADD AND DUP3 ADD DUP1 PUSH1 0x40 MSTORE POP DUP2 ADD SWAP1 PUSH2 0x449 SWAP2 SWAP1 PUSH2 0x175A JUMP JUMPDEST DUP1 SWAP3 POP DUP2 SWAP4 POP POP POP PUSH1 0x0 PUSH4 0x5530EA1A PUSH1 0xE0 SHL DUP7 DUP7 PUSH1 0x20 ADD MLOAD PUSH1 0x40 MLOAD PUSH1 0x24 ADD PUSH2 0x472 SWAP3 SWAP2 SWAP1 PUSH2 0x17EF JUMP JUMPDEST PUSH1 0x40 MLOAD PUSH1 0x20 DUP2 DUP4 SUB SUB DUP2 MSTORE SWAP1 PUSH1 0x40 MSTORE SWAP1 PUSH28 0xFFFFFFFFFFFFFFFFFFFFFFFFFFFFFFFFFFFFFFFFFFFFFFFFFFFFFFFF NOT AND PUSH1 0x20 DUP3 ADD DUP1 MLOAD PUSH28 0xFFFFFFFFFFFFFFFFFFFFFFFFFFFFFFFFFFFFFFFFFFFFFFFFFFFFFFFF DUP4 DUP2 DUP4 AND OR DUP4 MSTORE POP POP POP POP SWAP1 POP PUSH1 0x0 DUP1 DUP5 PUSH20 0xFFFFFFFFFFFFFFFFFFFFFFFFFFFFFFFFFFFFFFFF AND DUP4 PUSH1 0x40 MLOAD PUSH2 0x4F9 SWAP2 SWAP1 PUSH2 0x1862 JUMP JUMPDEST PUSH1 0x0 PUSH1 0x40 MLOAD DUP1 DUP4 SUB DUP2 DUP6 GAS DELEGATECALL SWAP2 POP POP RETURNDATASIZE DUP1 PUSH1 0x0 DUP2 EQ PUSH2 0x534 JUMPI PUSH1 0x40 MLOAD SWAP2 POP PUSH1 0x1F NOT PUSH1 0x3F RETURNDATASIZE ADD AND DUP3 ADD PUSH1 0x40 MSTORE RETURNDATASIZE DUP3 MSTORE RETURNDATASIZE PUSH1 0x0 PUSH1 0x20 DUP5 ADD RETURNDATACOPY PUSH2 0x539 JUMP JUMPDEST PUSH1 0x60 SWAP2 POP JUMPDEST POP SWAP2 POP SWAP2 POP PUSH1 0x1 ISZERO ISZERO DUP3 ISZERO ISZERO EQ PUSH2 0x585 JUMPI PUSH1 0x40 MLOAD PUSH32 0x8C379A000000000000000000000000000000000000000000000000000000000 DUP2 MSTORE PUSH1 0x4 ADD PUSH2 0x57C SWAP1 PUSH2 0x18EB JUMP JUMPDEST PUSH1 0x40 MLOAD DUP1 SWAP2 SUB SWAP1 REVERT JUMPDEST PUSH1 0x0 DUP2 DUP1 PUSH1 0x20 ADD SWAP1 MLOAD DUP2 ADD SWAP1 PUSH2 0x59B SWAP2 SWAP1 PUSH2 0x1A07 JUMP JUMPDEST SWAP1 POP DUP1 SWAP7 POP POP POP POP POP POP POP SWAP3 SWAP2 POP POP JUMP JUMPDEST PUSH1 0x0 DUP1 PUSH1 0x0 SWAP1 SLOAD SWAP1 PUSH2 0x100 EXP SWAP1 DIV PUSH20 0xFFFFFFFFFFFFFFFFFFFFFFFFFFFFFFFFFFFFFFFF AND SWAP1 POP SWAP1 JUMP JUMPDEST PUSH2 0x5DD PUSH2 0xAA6 JUMP JUMPDEST PUSH20 0xFFFFFFFFFFFFFFFFFFFFFFFFFFFFFFFFFFFFFFFF AND PUSH2 0x5FB PUSH2 0x5AC JUMP JUMPDEST PUSH20 0xFFFFFFFFFFFFFFFFFFFFFFFFFFFFFFFFFFFFFFFF AND EQ PUSH2 0x651 JUMPI PUSH1 0x40 MLOAD PUSH32 0x8C379A000000000000000000000000000000000000000000000000000000000 DUP2 MSTORE PUSH1 0x4 ADD PUSH2 0x648 SWAP1 PUSH2 0x168C JUMP JUMPDEST PUSH1 0x40 MLOAD DUP1 SWAP2 SUB SWAP1 REVERT JUMPDEST DUP3 PUSH20 0xFFFFFFFFFFFFFFFFFFFFFFFFFFFFFFFFFFFFFFFF AND DUP3 DUP3 PUSH1 0x40 MLOAD PUSH2 0x677 SWAP2 SWAP1 PUSH2 0x1862 JUMP JUMPDEST PUSH1 0x0 PUSH1 0x40 MLOAD DUP1 DUP4 SUB DUP2 DUP6 DUP8 GAS CALL SWAP3 POP POP POP RETURNDATASIZE DUP1 PUSH1 0x0 DUP2 EQ PUSH2 0x6B4 JUMPI PUSH1 0x40 MLOAD SWAP2 POP PUSH1 0x1F NOT PUSH1 0x3F RETURNDATASIZE ADD AND DUP3 ADD PUSH1 0x40 MSTORE RETURNDATASIZE DUP3 MSTORE RETURNDATASIZE PUSH1 0x0 PUSH1 0x20 DUP5 ADD RETURNDATACOPY PUSH2 0x6B9 JUMP JUMPDEST PUSH1 0x60 SWAP2 POP JUMPDEST POP POP POP POP POP POP JUMP JUMPDEST PUSH2 0x6C9 PUSH2 0xAA6 JUMP JUMPDEST PUSH20 0xFFFFFFFFFFFFFFFFFFFFFFFFFFFFFFFFFFFFFFFF AND PUSH2 0x6E7 PUSH2 0x5AC JUMP JUMPDEST PUSH20 0xFFFFFFFFFFFFFFFFFFFFFFFFFFFFFFFFFFFFFFFF AND EQ PUSH2 0x73D JUMPI PUSH1 0x40 MLOAD PUSH32 0x8C379A000000000000000000000000000000000000000000000000000000000 DUP2 MSTORE PUSH1 0x4 ADD PUSH2 0x734 SWAP1 PUSH2 0x168C JUMP JUMPDEST PUSH1 0x40 MLOAD DUP1 SWAP2 SUB SWAP1 REVERT JUMPDEST PUSH2 0x7BE DUP4 PUSH4 0xA9059CBB PUSH1 0xE0 SHL DUP5 DUP5 PUSH1 0x40 MLOAD PUSH1 0x24 ADD PUSH2 0x75C SWAP3 SWAP2 SWAP1 PUSH2 0x1A5F JUMP JUMPDEST PUSH1 0x40 MLOAD PUSH1 0x20 DUP2 DUP4 SUB SUB DUP2 MSTORE SWAP1 PUSH1 0x40 MSTORE SWAP1 PUSH28 0xFFFFFFFFFFFFFFFFFFFFFFFFFFFFFFFFFFFFFFFFFFFFFFFFFFFFFFFF NOT AND PUSH1 0x20 DUP3 ADD DUP1 MLOAD PUSH28 0xFFFFFFFFFFFFFFFFFFFFFFFFFFFFFFFFFFFFFFFFFFFFFFFFFFFFFFFF DUP4 DUP2 DUP4 AND OR DUP4 MSTORE POP POP POP POP PUSH2 0xB72 JUMP JUMPDEST POP POP POP JUMP JUMPDEST PUSH2 0x7CB PUSH2 0xAA6 JUMP JUMPDEST PUSH20 0xFFFFFFFFFFFFFFFFFFFFFFFFFFFFFFFFFFFFFFFF AND PUSH2 0x7E9 PUSH2 0x5AC JUMP JUMPDEST PUSH20 0xFFFFFFFFFFFFFFFFFFFFFFFFFFFFFFFFFFFFFFFF AND EQ PUSH2 0x83F JUMPI PUSH1 0x40 MLOAD PUSH32 0x8C379A000000000000000000000000000000000000000000000000000000000 DUP2 MSTORE PUSH1 0x4 ADD PUSH2 0x836 SWAP1 PUSH2 0x168C JUMP JUMPDEST PUSH1 0x40 MLOAD DUP1 SWAP2 SUB SWAP1 REVERT JUMPDEST PUSH2 0x8C2 DUP5 PUSH4 0x23B872DD PUSH1 0xE0 SHL DUP6 DUP6 DUP6 PUSH1 0x40 MLOAD PUSH1 0x24 ADD PUSH2 0x860 SWAP4 SWAP3 SWAP2 SWAP1 PUSH2 0x1A88 JUMP JUMPDEST PUSH1 0x40 MLOAD PUSH1 0x20 DUP2 DUP4 SUB SUB DUP2 MSTORE SWAP1 PUSH1 0x40 MSTORE SWAP1 PUSH28 0xFFFFFFFFFFFFFFFFFFFFFFFFFFFFFFFFFFFFFFFFFFFFFFFFFFFFFFFF NOT AND PUSH1 0x20 DUP3 ADD DUP1 MLOAD PUSH28 0xFFFFFFFFFFFFFFFFFFFFFFFFFFFFFFFFFFFFFFFFFFFFFFFFFFFFFFFF DUP4 DUP2 DUP4 AND OR DUP4 MSTORE POP POP POP POP PUSH2 0xB72 JUMP JUMPDEST POP POP POP POP JUMP JUMPDEST PUSH1 0x1 PUSH1 0x0 SWAP1 SLOAD SWAP1 PUSH2 0x100 EXP SWAP1 DIV PUSH20 0xFFFFFFFFFFFFFFFFFFFFFFFFFFFFFFFFFFFFFFFF AND DUP2 JUMP JUMPDEST PUSH2 0x8F6 PUSH2 0xAA6 JUMP JUMPDEST PUSH20 0xFFFFFFFFFFFFFFFFFFFFFFFFFFFFFFFFFFFFFFFF AND PUSH2 0x914 PUSH2 0x5AC JUMP JUMPDEST PUSH20 0xFFFFFFFFFFFFFFFFFFFFFFFFFFFFFFFFFFFFFFFF AND EQ PUSH2 0x96A JUMPI PUSH1 0x40 MLOAD PUSH32 0x8C379A000000000000000000000000000000000000000000000000000000000 DUP2 MSTORE PUSH1 0x4 ADD PUSH2 0x961 SWAP1 PUSH2 0x168C JUMP JUMPDEST PUSH1 0x40 MLOAD DUP1 SWAP2 SUB SWAP1 REVERT JUMPDEST PUSH1 0x0 PUSH20 0xFFFFFFFFFFFFFFFFFFFFFFFFFFFFFFFFFFFFFFFF AND DUP2 PUSH20 0xFFFFFFFFFFFFFFFFFFFFFFFFFFFFFFFFFFFFFFFF AND EQ ISZERO PUSH2 0x9DA JUMPI PUSH1 0x40 MLOAD PUSH32 0x8C379A000000000000000000000000000000000000000000000000000000000 DUP2 MSTORE PUSH1 0x4 ADD PUSH2 0x9D1 SWAP1 PUSH2 0x1B31 JUMP JUMPDEST PUSH1 0x40 MLOAD DUP1 SWAP2 SUB SWAP1 REVERT JUMPDEST PUSH2 0x9E3 DUP2 PUSH2 0xAAE JUMP JUMPDEST POP JUMP JUMPDEST PUSH2 0x9EE PUSH2 0xAA6 JUMP JUMPDEST PUSH20 0xFFFFFFFFFFFFFFFFFFFFFFFFFFFFFFFFFFFFFFFF AND PUSH2 0xA0C PUSH2 0x5AC JUMP JUMPDEST PUSH20 0xFFFFFFFFFFFFFFFFFFFFFFFFFFFFFFFFFFFFFFFF AND EQ PUSH2 0xA62 JUMPI PUSH1 0x40 MLOAD PUSH32 0x8C379A000000000000000000000000000000000000000000000000000000000 DUP2 MSTORE PUSH1 0x4 ADD PUSH2 0xA59 SWAP1 PUSH2 0x168C JUMP JUMPDEST PUSH1 0x40 MLOAD DUP1 SWAP2 SUB SWAP1 REVERT JUMPDEST DUP1 PUSH1 0x1 PUSH1 0x0 PUSH2 0x100 EXP DUP2 SLOAD DUP2 PUSH20 0xFFFFFFFFFFFFFFFFFFFFFFFFFFFFFFFFFFFFFFFF MUL NOT AND SWAP1 DUP4 PUSH20 0xFFFFFFFFFFFFFFFFFFFFFFFFFFFFFFFFFFFFFFFF AND MUL OR SWAP1 SSTORE POP POP JUMP JUMPDEST PUSH1 0x0 CALLER SWAP1 POP SWAP1 JUMP JUMPDEST PUSH1 0x0 DUP1 PUSH1 0x0 SWAP1 SLOAD SWAP1 PUSH2 0x100 EXP SWAP1 DIV PUSH20 0xFFFFFFFFFFFFFFFFFFFFFFFFFFFFFFFFFFFFFFFF AND SWAP1 POP DUP2 PUSH1 0x0 DUP1 PUSH2 0x100 EXP DUP2 SLOAD DUP2 PUSH20 0xFFFFFFFFFFFFFFFFFFFFFFFFFFFFFFFFFFFFFFFF MUL NOT AND SWAP1 DUP4 PUSH20 0xFFFFFFFFFFFFFFFFFFFFFFFFFFFFFFFFFFFFFFFF AND MUL OR SWAP1 SSTORE POP DUP2 PUSH20 0xFFFFFFFFFFFFFFFFFFFFFFFFFFFFFFFFFFFFFFFF AND DUP2 PUSH20 0xFFFFFFFFFFFFFFFFFFFFFFFFFFFFFFFFFFFFFFFF AND PUSH32 0x8BE0079C531659141344CD1FD0A4F28419497F9722A3DAAFE3B4186F6B6457E0 PUSH1 0x40 MLOAD PUSH1 0x40 MLOAD DUP1 SWAP2 SUB SWAP1 LOG3 POP POP JUMP JUMPDEST PUSH1 0x0 DUP1 DUP4 PUSH20 0xFFFFFFFFFFFFFFFFFFFFFFFFFFFFFFFFFFFFFFFF AND DUP4 PUSH1 0x40 MLOAD PUSH2 0xB9A SWAP2 SWAP1 PUSH2 0x1862 JUMP JUMPDEST PUSH1 0x0 PUSH1 0x40 MLOAD DUP1 DUP4 SUB DUP2 PUSH1 0x0 DUP7 GAS CALL SWAP2 POP POP RETURNDATASIZE DUP1 PUSH1 0x0 DUP2 EQ PUSH2 0xBD7 JUMPI PUSH1 0x40 MLOAD SWAP2 POP PUSH1 0x1F NOT PUSH1 0x3F RETURNDATASIZE ADD AND DUP3 ADD PUSH1 0x40 MSTORE RETURNDATASIZE DUP3 MSTORE RETURNDATASIZE PUSH1 0x0 PUSH1 0x20 DUP5 ADD RETURNDATACOPY PUSH2 0xBDC JUMP JUMPDEST PUSH1 0x60 SWAP2 POP JUMPDEST POP SWAP2 POP SWAP2 POP PUSH1 0x1 ISZERO ISZERO DUP3 ISZERO ISZERO EQ PUSH2 0xC28 JUMPI PUSH1 0x40 MLOAD PUSH32 0x8C379A000000000000000000000000000000000000000000000000000000000 DUP2 MSTORE PUSH1 0x4 ADD PUSH2 0xC1F SWAP1 PUSH2 0x18EB JUMP JUMPDEST PUSH1 0x40 MLOAD DUP1 SWAP2 SUB SWAP1 REVERT JUMPDEST PUSH1 0x0 DUP2 MLOAD GT ISZERO PUSH2 0xC86 JUMPI DUP1 DUP1 PUSH1 0x20 ADD SWAP1 MLOAD DUP2 ADD SWAP1 PUSH2 0xC46 SWAP2 SWAP1 PUSH2 0x1B89 JUMP JUMPDEST PUSH2 0xC85 JUMPI PUSH1 0x40 MLOAD PUSH32 0x8C379A000000000000000000000000000000000000000000000000000000000 DUP2 MSTORE PUSH1 0x4 ADD PUSH2 0xC7C SWAP1 PUSH2 0x18EB JUMP JUMPDEST PUSH1 0x40 MLOAD DUP1 SWAP2 SUB SWAP1 REVERT JUMPDEST JUMPDEST POP POP POP POP JUMP JUMPDEST PUSH1 0x40 MLOAD DUP1 PUSH1 0x40 ADD PUSH1 0x40 MSTORE DUP1 PUSH1 0x0 PUSH20 0xFFFFFFFFFFFFFFFFFFFFFFFFFFFFFFFFFFFFFFFF AND DUP2 MSTORE PUSH1 0x20 ADD PUSH1 0x0 DUP2 MSTORE POP SWAP1 JUMP JUMPDEST PUSH1 0x0 PUSH1 0x40 MLOAD SWAP1 POP SWAP1 JUMP JUMPDEST PUSH1 0x0 DUP1 REVERT JUMPDEST PUSH1 0x0 DUP1 REVERT JUMPDEST PUSH1 0x0 DUP1 REVERT JUMPDEST PUSH1 0x0 PUSH1 0x40 DUP3 DUP5 SUB SLT ISZERO PUSH2 0xCEB JUMPI PUSH2 0xCEA PUSH2 0xCD0 JUMP JUMPDEST JUMPDEST DUP2 SWAP1 POP SWAP3 SWAP2 POP POP JUMP JUMPDEST PUSH1 0x0 PUSH1 0x20 DUP3 DUP5 SUB SLT ISZERO PUSH2 0xD0A JUMPI PUSH2 0xD09 PUSH2 0xCC6 JUMP JUMPDEST JUMPDEST PUSH1 0x0 DUP3 ADD CALLDATALOAD PUSH8 0xFFFFFFFFFFFFFFFF DUP2 GT ISZERO PUSH2 0xD28 JUMPI PUSH2 0xD27 PUSH2 0xCCB JUMP JUMPDEST JUMPDEST PUSH2 0xD34 DUP5 DUP3 DUP6 ADD PUSH2 0xCD5 JUMP JUMPDEST SWAP2 POP POP SWAP3 SWAP2 POP POP JUMP JUMPDEST PUSH1 0x0 DUP2 MLOAD SWAP1 POP SWAP2 SWAP1 POP JUMP JUMPDEST PUSH1 0x0 DUP3 DUP3 MSTORE PUSH1 0x20 DUP3 ADD SWAP1 POP SWAP3 SWAP2 POP POP JUMP JUMPDEST PUSH1 0x0 DUP2 SWAP1 POP PUSH1 0x20 DUP3 ADD SWAP1 POP SWAP2 SWAP1 POP JUMP JUMPDEST PUSH1 0x0 PUSH20 0xFFFFFFFFFFFFFFFFFFFFFFFFFFFFFFFFFFFFFFFF DUP3 AND SWAP1 POP SWAP2 SWAP1 POP JUMP JUMPDEST PUSH1 0x0 PUSH2 0xD94 DUP3 PUSH2 0xD69 JUMP JUMPDEST SWAP1 POP SWAP2 SWAP1 POP JUMP JUMPDEST PUSH2 0xDA4 DUP2 PUSH2 0xD89 JUMP JUMPDEST DUP3 MSTORE POP POP JUMP JUMPDEST PUSH1 0x0 DUP2 SWAP1 POP SWAP2 SWAP1 POP JUMP JUMPDEST PUSH2 0xDBD DUP2 PUSH2 0xDAA JUMP JUMPDEST DUP3 MSTORE POP POP JUMP JUMPDEST PUSH1 0x40 DUP3 ADD PUSH1 0x0 DUP3 ADD MLOAD PUSH2 0xDD9 PUSH1 0x0 DUP6 ADD DUP3 PUSH2 0xD9B JUMP JUMPDEST POP PUSH1 0x20 DUP3 ADD MLOAD PUSH2 0xDEC PUSH1 0x20 DUP6 ADD DUP3 PUSH2 0xDB4 JUMP JUMPDEST POP POP POP POP JUMP JUMPDEST PUSH1 0x0 PUSH2 0xDFE DUP4 DUP4 PUSH2 0xDC3 JUMP JUMPDEST PUSH1 0x40 DUP4 ADD SWAP1 POP SWAP3 SWAP2 POP POP JUMP JUMPDEST PUSH1 0x0 PUSH1 0x20 DUP3 ADD SWAP1 POP SWAP2 SWAP1 POP JUMP JUMPDEST PUSH1 0x0 PUSH2 0xE22 DUP3 PUSH2 0xD3D JUMP JUMPDEST PUSH2 0xE2C DUP2 DUP6 PUSH2 0xD48 JUMP JUMPDEST SWAP4 POP PUSH2 0xE37 DUP4 PUSH2 0xD59 JUMP JUMPDEST DUP1 PUSH1 0x0 JUMPDEST DUP4 DUP2 LT ISZERO PUSH2 0xE68 JUMPI DUP2 MLOAD PUSH2 0xE4F DUP9 DUP3 PUSH2 0xDF2 JUMP JUMPDEST SWAP8 POP PUSH2 0xE5A DUP4 PUSH2 0xE0A JUMP JUMPDEST SWAP3 POP POP PUSH1 0x1 DUP2 ADD SWAP1 POP PUSH2 0xE3B JUMP JUMPDEST POP DUP6 SWAP4 POP POP POP POP SWAP3 SWAP2 POP POP JUMP JUMPDEST PUSH1 0x0 PUSH1 0x20 DUP3 ADD SWAP1 POP DUP2 DUP2 SUB PUSH1 0x0 DUP4 ADD MSTORE PUSH2 0xE8F DUP2 DUP5 PUSH2 0xE17 JUMP JUMPDEST SWAP1 POP SWAP3 SWAP2 POP POP JUMP JUMPDEST PUSH1 0x0 DUP1 REVERT JUMPDEST PUSH1 0x0 PUSH1 0x1F NOT PUSH1 0x1F DUP4 ADD AND SWAP1 POP SWAP2 SWAP1 POP JUMP JUMPDEST PUSH32 0x4E487B7100000000000000000000000000000000000000000000000000000000 PUSH1 0x0 MSTORE PUSH1 0x41 PUSH1 0x4 MSTORE PUSH1 0x24 PUSH1 0x0 REVERT JUMPDEST PUSH2 0xEE5 DUP3 PUSH2 0xE9C JUMP JUMPDEST DUP2 ADD DUP2 DUP2 LT PUSH8 0xFFFFFFFFFFFFFFFF DUP3 GT OR ISZERO PUSH2 0xF04 JUMPI PUSH2 0xF03 PUSH2 0xEAD JUMP JUMPDEST JUMPDEST DUP1 PUSH1 0x40 MSTORE POP POP POP JUMP JUMPDEST PUSH1 0x0 PUSH2 0xF17 PUSH2 0xCBC JUMP JUMPDEST SWAP1 POP PUSH2 0xF23 DUP3 DUP3 PUSH2 0xEDC JUMP JUMPDEST SWAP2 SWAP1 POP JUMP JUMPDEST PUSH1 0x0 PUSH8 0xFFFFFFFFFFFFFFFF DUP3 GT ISZERO PUSH2 0xF43 JUMPI PUSH2 0xF42 PUSH2 0xEAD JUMP JUMPDEST JUMPDEST PUSH1 0x20 DUP3 MUL SWAP1 POP PUSH1 0x20 DUP2 ADD SWAP1 POP SWAP2 SWAP1 POP JUMP JUMPDEST PUSH1 0x0 DUP1 REVERT JUMPDEST PUSH1 0x0 DUP1 REVERT JUMPDEST PUSH1 0x0 DUP1 REVERT JUMPDEST PUSH2 0xF6C DUP2 PUSH2 0xD89 JUMP JUMPDEST DUP2 EQ PUSH2 0xF77 JUMPI PUSH1 0x0 DUP1 REVERT JUMPDEST POP JUMP JUMPDEST PUSH1 0x0 DUP2 CALLDATALOAD SWAP1 POP PUSH2 0xF89 DUP2 PUSH2 0xF63 JUMP JUMPDEST SWAP3 SWAP2 POP POP JUMP JUMPDEST PUSH2 0xF98 DUP2 PUSH2 0xDAA JUMP JUMPDEST DUP2 EQ PUSH2 0xFA3 JUMPI PUSH1 0x0 DUP1 REVERT JUMPDEST POP JUMP JUMPDEST PUSH1 0x0 DUP2 CALLDATALOAD SWAP1 POP PUSH2 0xFB5 DUP2 PUSH2 0xF8F JUMP JUMPDEST SWAP3 SWAP2 POP POP JUMP JUMPDEST PUSH1 0x0 PUSH1 0x40 DUP3 DUP5 SUB SLT ISZERO PUSH2 0xFD1 JUMPI PUSH2 0xFD0 PUSH2 0xF59 JUMP JUMPDEST JUMPDEST PUSH2 0xFDB PUSH1 0x40 PUSH2 0xF0D JUMP JUMPDEST SWAP1 POP PUSH1 0x0 PUSH2 0xFEB DUP5 DUP3 DUP6 ADD PUSH2 0xF7A JUMP JUMPDEST PUSH1 0x0 DUP4 ADD MSTORE POP PUSH1 0x20 PUSH2 0xFFF DUP5 DUP3 DUP6 ADD PUSH2 0xFA6 JUMP JUMPDEST PUSH1 0x20 DUP4 ADD MSTORE POP SWAP3 SWAP2 POP POP JUMP JUMPDEST PUSH1 0x0 PUSH2 0x101E PUSH2 0x1019 DUP5 PUSH2 0xF28 JUMP JUMPDEST PUSH2 0xF0D JUMP JUMPDEST SWAP1 POP DUP1 DUP4 DUP3 MSTORE PUSH1 0x20 DUP3 ADD SWAP1 POP PUSH1 0x40 DUP5 MUL DUP4 ADD DUP6 DUP2 GT ISZERO PUSH2 0x1041 JUMPI PUSH2 0x1040 PUSH2 0xF54 JUMP JUMPDEST JUMPDEST DUP4 JUMPDEST DUP2 DUP2 LT ISZERO PUSH2 0x106A JUMPI DUP1 PUSH2 0x1056 DUP9 DUP3 PUSH2 0xFBB JUMP JUMPDEST DUP5 MSTORE PUSH1 0x20 DUP5 ADD SWAP4 POP POP PUSH1 0x40 DUP2 ADD SWAP1 POP PUSH2 0x1043 JUMP JUMPDEST POP POP POP SWAP4 SWAP3 POP POP POP JUMP JUMPDEST PUSH1 0x0 DUP3 PUSH1 0x1F DUP4 ADD SLT PUSH2 0x1089 JUMPI PUSH2 0x1088 PUSH2 0xE97 JUMP JUMPDEST JUMPDEST DUP2 CALLDATALOAD PUSH2 0x1099 DUP5 DUP3 PUSH1 0x20 DUP7 ADD PUSH2 0x100B JUMP JUMPDEST SWAP2 POP POP SWAP3 SWAP2 POP POP JUMP JUMPDEST PUSH1 0x0 DUP1 REVERT JUMPDEST PUSH1 0x0 PUSH8 0xFFFFFFFFFFFFFFFF DUP3 GT ISZERO PUSH2 0x10C2 JUMPI PUSH2 0x10C1 PUSH2 0xEAD JUMP JUMPDEST JUMPDEST PUSH2 0x10CB DUP3 PUSH2 0xE9C JUMP JUMPDEST SWAP1 POP PUSH1 0x20 DUP2 ADD SWAP1 POP SWAP2 SWAP1 POP JUMP JUMPDEST DUP3 DUP2 DUP4 CALLDATACOPY PUSH1 0x0 DUP4 DUP4 ADD MSTORE POP POP POP JUMP JUMPDEST PUSH1 0x0 PUSH2 0x10FA PUSH2 0x10F5 DUP5 PUSH2 0x10A7 JUMP JUMPDEST PUSH2 0xF0D JUMP JUMPDEST SWAP1 POP DUP3 DUP2 MSTORE PUSH1 0x20 DUP2 ADD DUP5 DUP5 DUP5 ADD GT ISZERO PUSH2 0x1116 JUMPI PUSH2 0x1115 PUSH2 0x10A2 JUMP JUMPDEST JUMPDEST PUSH2 0x1121 DUP5 DUP3 DUP6 PUSH2 0x10D8 JUMP JUMPDEST POP SWAP4 SWAP3 POP POP POP JUMP JUMPDEST PUSH1 0x0 DUP3 PUSH1 0x1F DUP4 ADD SLT PUSH2 0x113E JUMPI PUSH2 0x113D PUSH2 0xE97 JUMP JUMPDEST JUMPDEST DUP2 CALLDATALOAD PUSH2 0x114E DUP5 DUP3 PUSH1 0x20 DUP7 ADD PUSH2 0x10E7 JUMP JUMPDEST SWAP2 POP POP SWAP3 SWAP2 POP POP JUMP JUMPDEST PUSH1 0x0 PUSH8 0xFFFFFFFFFFFFFFFF DUP3 GT ISZERO PUSH2 0x1172 JUMPI PUSH2 0x1171 PUSH2 0xEAD JUMP JUMPDEST JUMPDEST PUSH2 0x117B DUP3 PUSH2 0xE9C JUMP JUMPDEST SWAP1 POP PUSH1 0x20 DUP2 ADD SWAP1 POP SWAP2 SWAP1 POP JUMP JUMPDEST PUSH1 0x0 PUSH2 0x119B PUSH2 0x1196 DUP5 PUSH2 0x1157 JUMP JUMPDEST PUSH2 0xF0D JUMP JUMPDEST SWAP1 POP DUP3 DUP2 MSTORE PUSH1 0x20 DUP2 ADD DUP5 DUP5 DUP5 ADD GT ISZERO PUSH2 0x11B7 JUMPI PUSH2 0x11B6 PUSH2 0x10A2 JUMP JUMPDEST JUMPDEST PUSH2 0x11C2 DUP5 DUP3 DUP6 PUSH2 0x10D8 JUMP JUMPDEST POP SWAP4 SWAP3 POP POP POP JUMP JUMPDEST PUSH1 0x0 DUP3 PUSH1 0x1F DUP4 ADD SLT PUSH2 0x11DF JUMPI PUSH2 0x11DE PUSH2 0xE97 JUMP JUMPDEST JUMPDEST DUP2 CALLDATALOAD PUSH2 0x11EF DUP5 DUP3 PUSH1 0x20 DUP7 ADD PUSH2 0x1188 JUMP JUMPDEST SWAP2 POP POP SWAP3 SWAP2 POP POP JUMP JUMPDEST PUSH1 0x0 PUSH1 0x40 DUP3 DUP5 SUB SLT ISZERO PUSH2 0x120E JUMPI PUSH2 0x120D PUSH2 0xF59 JUMP JUMPDEST JUMPDEST PUSH2 0x1218 PUSH1 0x40 PUSH2 0xF0D JUMP JUMPDEST SWAP1 POP PUSH1 0x0 DUP3 ADD CALLDATALOAD PUSH8 0xFFFFFFFFFFFFFFFF DUP2 GT ISZERO PUSH2 0x1238 JUMPI PUSH2 0x1237 PUSH2 0xF5E JUMP JUMPDEST JUMPDEST PUSH2 0x1244 DUP5 DUP3 DUP6 ADD PUSH2 0x1129 JUMP JUMPDEST PUSH1 0x0 DUP4 ADD MSTORE POP PUSH1 0x20 DUP3 ADD CALLDATALOAD PUSH8 0xFFFFFFFFFFFFFFFF DUP2 GT ISZERO PUSH2 0x1268 JUMPI PUSH2 0x1267 PUSH2 0xF5E JUMP JUMPDEST JUMPDEST PUSH2 0x1274 DUP5 DUP3 DUP6 ADD PUSH2 0x11CA JUMP JUMPDEST PUSH1 0x20 DUP4 ADD MSTORE POP SWAP3 SWAP2 POP POP JUMP JUMPDEST PUSH1 0x0 DUP1 PUSH1 0x40 DUP4 DUP6 SUB SLT ISZERO PUSH2 0x1297 JUMPI PUSH2 0x1296 PUSH2 0xCC6 JUMP JUMPDEST JUMPDEST PUSH1 0x0 DUP4 ADD CALLDATALOAD PUSH8 0xFFFFFFFFFFFFFFFF DUP2 GT ISZERO PUSH2 0x12B5 JUMPI PUSH2 0x12B4 PUSH2 0xCCB JUMP JUMPDEST JUMPDEST PUSH2 0x12C1 DUP6 DUP3 DUP7 ADD PUSH2 0x1074 JUMP JUMPDEST SWAP3 POP POP PUSH1 0x20 DUP4 ADD CALLDATALOAD PUSH8 0xFFFFFFFFFFFFFFFF DUP2 GT ISZERO PUSH2 0x12E2 JUMPI PUSH2 0x12E1 PUSH2 0xCCB JUMP JUMPDEST JUMPDEST PUSH2 0x12EE DUP6 DUP3 DUP7 ADD PUSH2 0x11F8 JUMP JUMPDEST SWAP2 POP POP SWAP3 POP SWAP3 SWAP1 POP JUMP JUMPDEST PUSH2 0x1301 DUP2 PUSH2 0xD89 JUMP JUMPDEST DUP3 MSTORE POP POP JUMP JUMPDEST PUSH1 0x0 PUSH1 0x20 DUP3 ADD SWAP1 POP PUSH2 0x131C PUSH1 0x0 DUP4 ADD DUP5 PUSH2 0x12F8 JUMP JUMPDEST SWAP3 SWAP2 POP POP JUMP JUMPDEST PUSH1 0x0 DUP1 PUSH1 0x0 PUSH1 0x60 DUP5 DUP7 SUB SLT ISZERO PUSH2 0x133B JUMPI PUSH2 0x133A PUSH2 0xCC6 JUMP JUMPDEST JUMPDEST PUSH1 0x0 PUSH2 0x1349 DUP7 DUP3 DUP8 ADD PUSH2 0xF7A JUMP JUMPDEST SWAP4 POP POP PUSH1 0x20 PUSH2 0x135A DUP7 DUP3 DUP8 ADD PUSH2 0xFA6 JUMP JUMPDEST SWAP3 POP POP PUSH1 0x40 DUP5 ADD CALLDATALOAD PUSH8 0xFFFFFFFFFFFFFFFF DUP2 GT ISZERO PUSH2 0x137B JUMPI PUSH2 0x137A PUSH2 0xCCB JUMP JUMPDEST JUMPDEST PUSH2 0x1387 DUP7 DUP3 DUP8 ADD PUSH2 0x11CA JUMP JUMPDEST SWAP2 POP POP SWAP3 POP SWAP3 POP SWAP3 JUMP JUMPDEST PUSH1 0x0 DUP1 PUSH1 0x0 PUSH1 0x60 DUP5 DUP7 SUB SLT ISZERO PUSH2 0x13AA JUMPI PUSH2 0x13A9 PUSH2 0xCC6 JUMP JUMPDEST JUMPDEST PUSH1 0x0 PUSH2 0x13B8 DUP7 DUP3 DUP8 ADD PUSH2 0xF7A JUMP JUMPDEST SWAP4 POP POP PUSH1 0x20 PUSH2 0x13C9 DUP7 DUP3 DUP8 ADD PUSH2 0xF7A JUMP JUMPDEST SWAP3 POP POP PUSH1 0x40 PUSH2 0x13DA DUP7 DUP3 DUP8 ADD PUSH2 0xFA6 JUMP JUMPDEST SWAP2 POP POP SWAP3 POP SWAP3 POP SWAP3 JUMP JUMPDEST PUSH1 0x0 DUP1 PUSH1 0x0 DUP1 PUSH1 0x80 DUP6 DUP8 SUB SLT ISZERO PUSH2 0x13FE JUMPI PUSH2 0x13FD PUSH2 0xCC6 JUMP JUMPDEST JUMPDEST PUSH1 0x0 PUSH2 0x140C DUP8 DUP3 DUP9 ADD PUSH2 0xF7A JUMP JUMPDEST SWAP5 POP POP PUSH1 0x20 PUSH2 0x141D DUP8 DUP3 DUP9 ADD PUSH2 0xF7A JUMP JUMPDEST SWAP4 POP POP PUSH1 0x40 PUSH2 0x142E DUP8 DUP3 DUP9 ADD PUSH2 0xF7A JUMP JUMPDEST SWAP3 POP POP PUSH1 0x60 PUSH2 0x143F DUP8 DUP3 DUP9 ADD PUSH2 0xFA6 JUMP JUMPDEST SWAP2 POP POP SWAP3 SWAP6 SWAP2 SWAP5 POP SWAP3 POP JUMP JUMPDEST PUSH1 0x0 PUSH1 0x20 DUP3 DUP5 SUB SLT ISZERO PUSH2 0x1461 JUMPI PUSH2 0x1460 PUSH2 0xCC6 JUMP JUMPDEST JUMPDEST PUSH1 0x0 PUSH2 0x146F DUP5 DUP3 DUP6 ADD PUSH2 0xF7A JUMP JUMPDEST SWAP2 POP POP SWAP3 SWAP2 POP POP JUMP JUMPDEST PUSH1 0x0 DUP1 REVERT JUMPDEST PUSH1 0x0 DUP1 REVERT JUMPDEST PUSH1 0x0 DUP1 REVERT JUMPDEST PUSH1 0x0 DUP1 DUP4 CALLDATALOAD PUSH1 0x1 PUSH1 0x20 SUB DUP5 CALLDATASIZE SUB SUB DUP2 SLT PUSH2 0x14A4 JUMPI PUSH2 0x14A3 PUSH2 0x1478 JUMP JUMPDEST JUMPDEST DUP1 DUP5 ADD SWAP3 POP DUP3 CALLDATALOAD SWAP2 POP PUSH8 0xFFFFFFFFFFFFFFFF DUP3 GT ISZERO PUSH2 0x14C6 JUMPI PUSH2 0x14C5 PUSH2 0x147D JUMP JUMPDEST JUMPDEST PUSH1 0x20 DUP4 ADD SWAP3 POP PUSH1 0x40 DUP3 MUL CALLDATASIZE SUB DUP4 SGT ISZERO PUSH2 0x14E2 JUMPI PUSH2 0x14E1 PUSH2 0x1482 JUMP JUMPDEST JUMPDEST POP SWAP3 POP SWAP3 SWAP1 POP JUMP JUMPDEST PUSH1 0x0 DUP1 DUP4 CALLDATALOAD PUSH1 0x1 PUSH1 0x20 SUB DUP5 CALLDATASIZE SUB SUB DUP2 SLT PUSH2 0x1507 JUMPI PUSH2 0x1506 PUSH2 0x1478 JUMP JUMPDEST JUMPDEST DUP1 DUP5 ADD SWAP3 POP DUP3 CALLDATALOAD SWAP2 POP PUSH8 0xFFFFFFFFFFFFFFFF DUP3 GT ISZERO PUSH2 0x1529 JUMPI PUSH2 0x1528 PUSH2 0x147D JUMP JUMPDEST JUMPDEST PUSH1 0x20 DUP4 ADD SWAP3 POP PUSH1 0x20 DUP3 MUL CALLDATASIZE SUB DUP4 SGT ISZERO PUSH2 0x1545 JUMPI PUSH2 0x1544 PUSH2 0x1482 JUMP JUMPDEST JUMPDEST POP SWAP3 POP SWAP3 SWAP1 POP JUMP JUMPDEST PUSH32 0x4E487B7100000000000000000000000000000000000000000000000000000000 PUSH1 0x0 MSTORE PUSH1 0x32 PUSH1 0x4 MSTORE PUSH1 0x24 PUSH1 0x0 REVERT JUMPDEST PUSH1 0x0 DUP3 CALLDATALOAD PUSH1 0x1 PUSH1 0x40 SUB DUP4 CALLDATASIZE SUB SUB DUP2 SLT PUSH2 0x1598 JUMPI PUSH2 0x1597 PUSH2 0x1478 JUMP JUMPDEST JUMPDEST DUP1 DUP4 ADD SWAP2 POP POP SWAP3 SWAP2 POP POP JUMP JUMPDEST PUSH1 0x0 PUSH2 0x15B0 CALLDATASIZE DUP4 PUSH2 0x11F8 JUMP JUMPDEST SWAP1 POP SWAP2 SWAP1 POP JUMP JUMPDEST PUSH32 0x4E487B7100000000000000000000000000000000000000000000000000000000 PUSH1 0x0 MSTORE PUSH1 0x11 PUSH1 0x4 MSTORE PUSH1 0x24 PUSH1 0x0 REVERT JUMPDEST PUSH1 0x0 PUSH2 0x15F1 DUP3 PUSH2 0xDAA JUMP JUMPDEST SWAP2 POP PUSH32 0xFFFFFFFFFFFFFFFFFFFFFFFFFFFFFFFFFFFFFFFFFFFFFFFFFFFFFFFFFFFFFFFF DUP3 EQ ISZERO PUSH2 0x1624 JUMPI PUSH2 0x1623 PUSH2 0x15B7 JUMP JUMPDEST JUMPDEST PUSH1 0x1 DUP3 ADD SWAP1 POP SWAP2 SWAP1 POP JUMP JUMPDEST PUSH1 0x0 DUP3 DUP3 MSTORE PUSH1 0x20 DUP3 ADD SWAP1 POP SWAP3 SWAP2 POP POP JUMP JUMPDEST PUSH32 0x4F776E61626C653A2063616C6C6572206973206E6F7420746865206F776E6572 PUSH1 0x0 DUP3 ADD MSTORE POP JUMP JUMPDEST PUSH1 0x0 PUSH2 0x1676 PUSH1 0x20 DUP4 PUSH2 0x162F JUMP JUMPDEST SWAP2 POP PUSH2 0x1681 DUP3 PUSH2 0x1640 JUMP JUMPDEST PUSH1 0x20 DUP3 ADD SWAP1 POP SWAP2 SWAP1 POP JUMP JUMPDEST PUSH1 0x0 PUSH1 0x20 DUP3 ADD SWAP1 POP DUP2 DUP2 SUB PUSH1 0x0 DUP4 ADD MSTORE PUSH2 0x16A5 DUP2 PUSH2 0x1669 JUMP JUMPDEST SWAP1 POP SWAP2 SWAP1 POP JUMP JUMPDEST PUSH1 0x0 DUP2 MLOAD SWAP1 POP SWAP2 SWAP1 POP JUMP JUMPDEST PUSH1 0x0 JUMPDEST DUP4 DUP2 LT ISZERO PUSH2 0x16D5 JUMPI DUP1 DUP3 ADD MLOAD DUP2 DUP5 ADD MSTORE PUSH1 0x20 DUP2 ADD SWAP1 POP PUSH2 0x16BA JUMP JUMPDEST DUP4 DUP2 GT ISZERO PUSH2 0x16E4 JUMPI PUSH1 0x0 DUP5 DUP5 ADD MSTORE JUMPDEST POP POP POP POP JUMP JUMPDEST PUSH1 0x0 PUSH2 0x16F5 DUP3 PUSH2 0x16AC JUMP JUMPDEST PUSH2 0x16FF DUP2 DUP6 PUSH2 0x162F JUMP JUMPDEST SWAP4 POP PUSH2 0x170F DUP2 DUP6 PUSH1 0x20 DUP7 ADD PUSH2 0x16B7 JUMP JUMPDEST PUSH2 0x1718 DUP2 PUSH2 0xE9C JUMP JUMPDEST DUP5 ADD SWAP2 POP POP SWAP3 SWAP2 POP POP JUMP JUMPDEST PUSH1 0x0 PUSH1 0x20 DUP3 ADD SWAP1 POP DUP2 DUP2 SUB PUSH1 0x0 DUP4 ADD MSTORE PUSH2 0x173D DUP2 DUP5 PUSH2 0x16EA JUMP JUMPDEST SWAP1 POP SWAP3 SWAP2 POP POP JUMP JUMPDEST PUSH1 0x0 DUP2 MLOAD SWAP1 POP PUSH2 0x1754 DUP2 PUSH2 0xF63 JUMP JUMPDEST SWAP3 SWAP2 POP POP JUMP JUMPDEST PUSH1 0x0 DUP1 PUSH1 0x40 DUP4 DUP6 SUB SLT ISZERO PUSH2 0x1771 JUMPI PUSH2 0x1770 PUSH2 0xCC6 JUMP JUMPDEST JUMPDEST PUSH1 0x0 PUSH2 0x177F DUP6 DUP3 DUP7 ADD PUSH2 0x1745 JUMP JUMPDEST SWAP3 POP POP PUSH1 0x20 PUSH2 0x1790 DUP6 DUP3 DUP7 ADD PUSH2 0x1745 JUMP JUMPDEST SWAP2 POP POP SWAP3 POP SWAP3 SWAP1 POP JUMP JUMPDEST PUSH1 0x0 DUP2 MLOAD SWAP1 POP SWAP2 SWAP1 POP JUMP JUMPDEST PUSH1 0x0 DUP3 DUP3 MSTORE PUSH1 0x20 DUP3 ADD SWAP1 POP SWAP3 SWAP2 POP POP JUMP JUMPDEST PUSH1 0x0 PUSH2 0x17C1 DUP3 PUSH2 0x179A JUMP JUMPDEST PUSH2 0x17CB DUP2 DUP6 PUSH2 0x17A5 JUMP JUMPDEST SWAP4 POP PUSH2 0x17DB DUP2 DUP6 PUSH1 0x20 DUP7 ADD PUSH2 0x16B7 JUMP JUMPDEST PUSH2 0x17E4 DUP2 PUSH2 0xE9C JUMP JUMPDEST DUP5 ADD SWAP2 POP POP SWAP3 SWAP2 POP POP JUMP JUMPDEST PUSH1 0x0 PUSH1 0x40 DUP3 ADD SWAP1 POP DUP2 DUP2 SUB PUSH1 0x0 DUP4 ADD MSTORE PUSH2 0x1809 DUP2 DUP6 PUSH2 0xE17 JUMP JUMPDEST SWAP1 POP DUP2 DUP2 SUB PUSH1 0x20 DUP4 ADD MSTORE PUSH2 0x181D DUP2 DUP5 PUSH2 0x17B6 JUMP JUMPDEST SWAP1 POP SWAP4 SWAP3 POP POP POP JUMP JUMPDEST PUSH1 0x0 DUP2 SWAP1 POP SWAP3 SWAP2 POP POP JUMP JUMPDEST PUSH1 0x0 PUSH2 0x183C DUP3 PUSH2 0x179A JUMP JUMPDEST PUSH2 0x1846 DUP2 DUP6 PUSH2 0x1826 JUMP JUMPDEST SWAP4 POP PUSH2 0x1856 DUP2 DUP6 PUSH1 0x20 DUP7 ADD PUSH2 0x16B7 JUMP JUMPDEST DUP1 DUP5 ADD SWAP2 POP POP SWAP3 SWAP2 POP POP JUMP JUMPDEST PUSH1 0x0 PUSH2 0x186E DUP3 DUP5 PUSH2 0x1831 JUMP JUMPDEST SWAP2 POP DUP2 SWAP1 POP SWAP3 SWAP2 POP POP JUMP JUMPDEST PUSH32 0x5361666545524332303A204552433230206F7065726174696F6E20646964206E PUSH1 0x0 DUP3 ADD MSTORE PUSH32 0x6F74207375636365656400000000000000000000000000000000000000000000 PUSH1 0x20 DUP3 ADD MSTORE POP JUMP JUMPDEST PUSH1 0x0 PUSH2 0x18D5 PUSH1 0x2A DUP4 PUSH2 0x162F JUMP JUMPDEST SWAP2 POP PUSH2 0x18E0 DUP3 PUSH2 0x1879 JUMP JUMPDEST PUSH1 0x40 DUP3 ADD SWAP1 POP SWAP2 SWAP1 POP JUMP JUMPDEST PUSH1 0x0 PUSH1 0x20 DUP3 ADD SWAP1 POP DUP2 DUP2 SUB PUSH1 0x0 DUP4 ADD MSTORE PUSH2 0x1904 DUP2 PUSH2 0x18C8 JUMP JUMPDEST SWAP1 POP SWAP2 SWAP1 POP JUMP JUMPDEST PUSH1 0x0 DUP2 MLOAD SWAP1 POP PUSH2 0x191A DUP2 PUSH2 0xF8F JUMP JUMPDEST SWAP3 SWAP2 POP POP JUMP JUMPDEST PUSH1 0x0 PUSH1 0x40 DUP3 DUP5 SUB SLT ISZERO PUSH2 0x1936 JUMPI PUSH2 0x1935 PUSH2 0xF59 JUMP JUMPDEST JUMPDEST PUSH2 0x1940 PUSH1 0x40 PUSH2 0xF0D JUMP JUMPDEST SWAP1 POP PUSH1 0x0 PUSH2 0x1950 DUP5 DUP3 DUP6 ADD PUSH2 0x1745 JUMP JUMPDEST PUSH1 0x0 DUP4 ADD MSTORE POP PUSH1 0x20 PUSH2 0x1964 DUP5 DUP3 DUP6 ADD PUSH2 0x190B JUMP JUMPDEST PUSH1 0x20 DUP4 ADD MSTORE POP SWAP3 SWAP2 POP POP JUMP JUMPDEST PUSH1 0x0 PUSH2 0x1983 PUSH2 0x197E DUP5 PUSH2 0xF28 JUMP JUMPDEST PUSH2 0xF0D JUMP JUMPDEST SWAP1 POP DUP1 DUP4 DUP3 MSTORE PUSH1 0x20 DUP3 ADD SWAP1 POP PUSH1 0x40 DUP5 MUL DUP4 ADD DUP6 DUP2 GT ISZERO PUSH2 0x19A6 JUMPI PUSH2 0x19A5 PUSH2 0xF54 JUMP JUMPDEST JUMPDEST DUP4 JUMPDEST DUP2 DUP2 LT ISZERO PUSH2 0x19CF JUMPI DUP1 PUSH2 0x19BB DUP9 DUP3 PUSH2 0x1920 JUMP JUMPDEST DUP5 MSTORE PUSH1 0x20 DUP5 ADD SWAP4 POP POP PUSH1 0x40 DUP2 ADD SWAP1 POP PUSH2 0x19A8 JUMP JUMPDEST POP POP POP SWAP4 SWAP3 POP POP POP JUMP JUMPDEST PUSH1 0x0 DUP3 PUSH1 0x1F DUP4 ADD SLT PUSH2 0x19EE JUMPI PUSH2 0x19ED PUSH2 0xE97 JUMP JUMPDEST JUMPDEST DUP2 MLOAD PUSH2 0x19FE DUP5 DUP3 PUSH1 0x20 DUP7 ADD PUSH2 0x1970 JUMP JUMPDEST SWAP2 POP POP SWAP3 SWAP2 POP POP JUMP JUMPDEST PUSH1 0x0 PUSH1 0x20 DUP3 DUP5 SUB SLT ISZERO PUSH2 0x1A1D JUMPI PUSH2 0x1A1C PUSH2 0xCC6 JUMP JUMPDEST JUMPDEST PUSH1 0x0 DUP3 ADD MLOAD PUSH8 0xFFFFFFFFFFFFFFFF DUP2 GT ISZERO PUSH2 0x1A3B JUMPI PUSH2 0x1A3A PUSH2 0xCCB JUMP JUMPDEST JUMPDEST PUSH2 0x1A47 DUP5 DUP3 DUP6 ADD PUSH2 0x19D9 JUMP JUMPDEST SWAP2 POP POP SWAP3 SWAP2 POP POP JUMP JUMPDEST PUSH2 0x1A59 DUP2 PUSH2 0xDAA JUMP JUMPDEST DUP3 MSTORE POP POP JUMP JUMPDEST PUSH1 0x0 PUSH1 0x40 DUP3 ADD SWAP1 POP PUSH2 0x1A74 PUSH1 0x0 DUP4 ADD DUP6 PUSH2 0x12F8 JUMP JUMPDEST PUSH2 0x1A81 PUSH1 0x20 DUP4 ADD DUP5 PUSH2 0x1A50 JUMP JUMPDEST SWAP4 SWAP3 POP POP POP JUMP JUMPDEST PUSH1 0x0 PUSH1 0x60 DUP3 ADD SWAP1 POP PUSH2 0x1A9D PUSH1 0x0 DUP4 ADD DUP7 PUSH2 0x12F8 JUMP JUMPDEST PUSH2 0x1AAA PUSH1 0x20 DUP4 ADD DUP6 PUSH2 0x12F8 JUMP JUMPDEST PUSH2 0x1AB7 PUSH1 0x40 DUP4 ADD DUP5 PUSH2 0x1A50 JUMP JUMPDEST SWAP5 SWAP4 POP POP POP POP JUMP JUMPDEST PUSH32 0x4F776E61626C653A206E6577206F776E657220697320746865207A65726F2061 PUSH1 0x0 DUP3 ADD MSTORE PUSH32 0x6464726573730000000000000000000000000000000000000000000000000000 PUSH1 0x20 DUP3 ADD MSTORE POP JUMP JUMPDEST PUSH1 0x0 PUSH2 0x1B1B PUSH1 0x26 DUP4 PUSH2 0x162F JUMP JUMPDEST SWAP2 POP PUSH2 0x1B26 DUP3 PUSH2 0x1ABF JUMP JUMPDEST PUSH1 0x40 DUP3 ADD SWAP1 POP SWAP2 SWAP1 POP JUMP JUMPDEST PUSH1 0x0 PUSH1 0x20 DUP3 ADD SWAP1 POP DUP2 DUP2 SUB PUSH1 0x0 DUP4 ADD MSTORE PUSH2 0x1B4A DUP2 PUSH2 0x1B0E JUMP JUMPDEST SWAP1 POP SWAP2 SWAP1 POP JUMP JUMPDEST PUSH1 0x0 DUP2 ISZERO ISZERO SWAP1 POP SWAP2 SWAP1 POP JUMP JUMPDEST PUSH2 0x1B66 DUP2 PUSH2 0x1B51 JUMP JUMPDEST DUP2 EQ PUSH2 0x1B71 JUMPI PUSH1 0x0 DUP1 REVERT JUMPDEST POP JUMP JUMPDEST PUSH1 0x0 DUP2 MLOAD SWAP1 POP PUSH2 0x1B83 DUP2 PUSH2 0x1B5D JUMP JUMPDEST SWAP3 SWAP2 POP POP JUMP JUMPDEST PUSH1 0x0 PUSH1 0x20 DUP3 DUP5 SUB SLT ISZERO PUSH2 0x1B9F JUMPI PUSH2 0x1B9E PUSH2 0xCC6 JUMP JUMPDEST JUMPDEST PUSH1 0x0 PUSH2 0x1BAD DUP5 DUP3 DUP6 ADD PUSH2 0x1B74 JUMP JUMPDEST SWAP2 POP POP SWAP3 SWAP2 POP POP JUMP INVALID LOG2 PUSH5 0x6970667358 0x22 SLT KECCAK256 0xEA CALLER 0xD8 EXTCODESIZE STATICCALL DUP2 LOG2 DUP9 0xC6 DUP1 PUSH19 0x4809B6906FD590D2BD6F4CBFEA4F71592D8D77 EXTCODECOPY SIGNEXTEND PUSH5 0x736F6C6343 STOP ADDMOD MULMOD STOP CALLER "
		},
		"gasEstimates": {
			"creation": {
				"codeDepositCost": "1429600",
				"executionCost": "infinite",
				"totalCost": "infinite"
			},
			"external": {
				"Call_Function(address,uint256,bytes)": "infinite",
				"Process(((address,uint256)[],(string,bytes)[]))": "infinite",
				"Process_One_Instruction((address,uint256)[],(string,bytes))": "infinite",
				"Set_Dynamic_AMM_Adapter_Link(address)": "27050",
				"m_Dynamic_AMM_Adapter_Link()": "2558",
				"owner()": "2589",
				"renounceOwnership()": "30397",
				"safeTransfer(address,address,uint256)": "infinite",
				"safeTransferFrom(address,address,address,uint256)": "infinite",
				"transferOwnership(address)": "30789"
			},
			"internal": {
				"Receive_Token(address,uint256,address)": "infinite",
				"_callOptionalReturn(address,bytes memory)": "infinite",
				"_safeTransfer(address,address,uint256)": "infinite",
				"_safeTransferFrom(address,address,address,uint256)": "infinite"
			}
		},
		"methodIdentifiers": {
			"Call_Function(address,uint256,bytes)": "a7d16f30",
			"Process(((address,uint256)[],(string,bytes)[]))": "6804b9ba",
			"Process_One_Instruction((address,uint256)[],(string,bytes))": "8b02ab75",
			"Set_Dynamic_AMM_Adapter_Link(address)": "ff54f1f3",
			"m_Dynamic_AMM_Adapter_Link()": "ec54bfd7",
			"owner()": "8da5cb5b",
			"renounceOwnership()": "715018a6",
			"safeTransfer(address,address,uint256)": "d1660f99",
			"safeTransferFrom(address,address,address,uint256)": "d9fc4b61",
			"transferOwnership(address)": "f2fde38b"
		}
	},
	"abi": [
		{
			"anonymous": false,
			"inputs": [
				{
					"indexed": true,
					"internalType": "address",
					"name": "previousOwner",
					"type": "address"
				},
				{
					"indexed": true,
					"internalType": "address",
					"name": "newOwner",
					"type": "address"
				}
			],
			"name": "OwnershipTransferred",
			"type": "event"
		},
		{
			"inputs": [
				{
					"internalType": "address",
					"name": "addr",
					"type": "address"
				},
				{
					"internalType": "uint256",
					"name": "value",
					"type": "uint256"
				},
				{
					"internalType": "bytes",
					"name": "data",
					"type": "bytes"
				}
			],
			"name": "Call_Function",
			"outputs": [],
			"stateMutability": "payable",
			"type": "function"
		},
		{
			"inputs": [
				{
					"components": [
						{
							"components": [
								{
									"internalType": "address",
									"name": "token",
									"type": "address"
								},
								{
									"internalType": "uint256",
									"name": "amount",
									"type": "uint256"
								}
							],
							"internalType": "struct Temp_Token_Table_Element[]",
							"name": "temp_token_table_register",
							"type": "tuple[]"
						},
						{
							"components": [
								{
									"internalType": "string",
									"name": "amm_name",
									"type": "string"
								},
								{
									"internalType": "bytes",
									"name": "serialized_data",
									"type": "bytes"
								}
							],
							"internalType": "struct Process_Instruction[]",
							"name": "instructions",
							"type": "tuple[]"
						}
					],
					"internalType": "struct Reunite_Process",
					"name": "args",
					"type": "tuple"
				}
			],
			"name": "Process",
			"outputs": [
				{
					"components": [
						{
							"internalType": "address",
							"name": "token",
							"type": "address"
						},
						{
							"internalType": "uint256",
							"name": "amount",
							"type": "uint256"
						}
					],
					"internalType": "struct Temp_Token_Table_Element[]",
					"name": "res",
					"type": "tuple[]"
				}
			],
			"stateMutability": "payable",
			"type": "function"
		},
		{
			"inputs": [
				{
					"components": [
						{
							"internalType": "address",
							"name": "token",
							"type": "address"
						},
						{
							"internalType": "uint256",
							"name": "amount",
							"type": "uint256"
						}
					],
					"internalType": "struct Temp_Token_Table_Element[]",
					"name": "token_registers",
					"type": "tuple[]"
				},
				{
					"components": [
						{
							"internalType": "string",
							"name": "amm_name",
							"type": "string"
						},
						{
							"internalType": "bytes",
							"name": "serialized_data",
							"type": "bytes"
						}
					],
					"internalType": "struct Process_Instruction",
					"name": "args",
					"type": "tuple"
				}
			],
			"name": "Process_One_Instruction",
			"outputs": [
				{
					"components": [
						{
							"internalType": "address",
							"name": "token",
							"type": "address"
						},
						{
							"internalType": "uint256",
							"name": "amount",
							"type": "uint256"
						}
					],
					"internalType": "struct Temp_Token_Table_Element[]",
					"name": "",
					"type": "tuple[]"
				}
			],
			"stateMutability": "payable",
			"type": "function"
		},
		{
			"inputs": [
				{
					"internalType": "address",
					"name": "addr",
					"type": "address"
				}
			],
			"name": "Set_Dynamic_AMM_Adapter_Link",
			"outputs": [],
			"stateMutability": "nonpayable",
			"type": "function"
		},
		{
			"inputs": [],
			"name": "m_Dynamic_AMM_Adapter_Link",
			"outputs": [
				{
					"internalType": "address",
					"name": "",
					"type": "address"
				}
			],
			"stateMutability": "view",
			"type": "function"
		},
		{
			"inputs": [],
			"name": "owner",
			"outputs": [
				{
					"internalType": "address",
					"name": "",
					"type": "address"
				}
			],
			"stateMutability": "view",
			"type": "function"
		},
		{
			"inputs": [],
			"name": "renounceOwnership",
			"outputs": [],
			"stateMutability": "nonpayable",
			"type": "function"
		},
		{
			"inputs": [
				{
					"internalType": "address",
					"name": "token",
					"type": "address"
				},
				{
					"internalType": "address",
					"name": "to",
					"type": "address"
				},
				{
					"internalType": "uint256",
					"name": "value",
					"type": "uint256"
				}
			],
			"name": "safeTransfer",
			"outputs": [],
			"stateMutability": "nonpayable",
			"type": "function"
		},
		{
			"inputs": [
				{
					"internalType": "address",
					"name": "token",
					"type": "address"
				},
				{
					"internalType": "address",
					"name": "from",
					"type": "address"
				},
				{
					"internalType": "address",
					"name": "to",
					"type": "address"
				},
				{
					"internalType": "uint256",
					"name": "value",
					"type": "uint256"
				}
			],
			"name": "safeTransferFrom",
			"outputs": [],
			"stateMutability": "nonpayable",
			"type": "function"
		},
		{
			"inputs": [
				{
					"internalType": "address",
					"name": "newOwner",
					"type": "address"
				}
			],
			"name": "transferOwnership",
			"outputs": [],
			"stateMutability": "nonpayable",
			"type": "function"
		}
	]
}